:020000040800F2
:10000000180B0020490200085102000853020008A2
:1000100055020008570200085902000800000000BD
:100020000000000000000000000000005B0200086B
:100030005D020008000000005F0200086102000885
:1000400063020008630200086302000863020008FC
:1000500063020008630200086302000863020008EC
:1000600063020008630200086302000863020008DC
:1000700063020008630200086302000863020008CC
:1000800063020008630200086302000863020008BC
:1000900063020008630200086302000863020008AC
:1000A000630200086302000863020008630200089C
:1000B0006302000863020008B50700086302000835
:1000C000630200087D06000863020008630200085E
:1000D00011070008630200084908000863020008CD
:1000E0004906000863020008630200086302000872
:1000F000630200086302000863020008630200084C
:10010000630200086302000863020008630200083B
:10011000630200086302000863020008630200082B
:10012000630200086302000863020008630200081B
:10013000630200086302000863020008630200080B
:1001400063020008630200086302000863020008FB
:1001500063020008630200086302000863020008EB
:1001600063020008630200086302000863020008DB
:100170006302000863020008630200080000000038
:10018000630200086302000800F002F800F04CF877
:100190000AA090E8000C82448344AAF10107DA45E2
:1001A00001D100F041F8AFF2090EBAE80F0013F0E8
:1001B000010F18BFFB1A43F001031847B00E0000EF
:1001C000D00E00000A4410F8014B14F00F0508BFD0
:1001D00010F8015B240908BF10F8014B6D1E05D013
:1001E00010F8013B6D1E01F8013BF9D1641E03D0EC
:1001F000641E01F8015BFBD19142E4D3704700001B
:100200000023002400250026103A28BF78C1FBD81F
:10021000520728BF30C148BF0B6070471FB500F0C0
:100220001FFF1FBD10B510BD00F031F81146FFF7DC
:10023000F5FF00F087FE00F04FF803B4FFF7F2FF80
:1002400003BC00F057F80000094880470948004700
:10025000FEE7FEE7FEE7FEE7FEE7FEE7FEE7FEE776
:10026000FEE7FEE704480549054A064B70470000D3
:10027000510700088901000818050020180B00200C
:100280001807002018070020704770477047754610
:1002900000F02CF8AE4605006946534620F00700F2
:1002A000854618B020B5FFF7DDFFBDE820404FF0D0
:1002B00000064FF000074FF000084FF0000B21F050
:1002C0000701AC46ACE8C009ACE8C009ACE8C0091D
:1002D000ACE8C0098D46704710B50446AFF3008006
:1002E0002046BDE81040FFF7A8BF00000048704757
:1002F000B804002001491820ABBEFEE7260002002A
:100300007047000010B55C48006840F008005A498A
:1003100008605A48006840F08060584908605748B3
:100320000830006840F000605449083108605348C4
:100330001430006840F400505049143108604E48B1
:10034000006840F008004C4908604C48006840F4E0
:1003500080004A49086049480830006840F40000BD
:1003600046490831086045481430006840F4006090
:100370004249143108604048006840F040003E495E
:1003800008603F48006840F480503D4908603C48A0
:100390000830006840F40050394908310860384896
:1003A0001430006840F0400035491431086033488B
:1003B0001430006820F400603049143108602E4881
:1003C000006840F008002C4908602C48006820F0C4
:1003D00000702A49086029480830006840F0007021
:1003E00026490831086024481430006840F48040F1
:1003F00021491431086088142249086021490C39C8
:100400000860032120484161282000F075F91A484E
:10041000006840F00200184908601C48006840F07D
:1004200028501A49086019480830006840F02850E0
:100430001649083108601548406A154908431349B0
:1004400048620D481030006840F480400A4910317D
:10045000086000200F49086040F61400086044203E
:10046000091D0860081F006840F04000091F08606F
:10047000242000F041F910BD30380240000C024049
:10048000001802400C3C01400038014000040240CA
:1004900000005505003800402DE9FF4F83B00446A9
:1004A0000D4690462E463546701CC6B2605D0290E1
:1004B0003046711CCEB214F800904FEAA9123046B3
:1004C000711CCEB2205C02EB8000C7B209F03F097C
:1004D0003046711CCEB214F800A03046711CCEB26A
:1004E000205C4AEA002A2B4603222146002000F025
:1004F00083F801900198824536D137B91099029856
:100500000870069880F8009030E0A84502DBA8EB60
:10051000050002E008F58070401B0090F91D00986E
:1005200081421EDC002F1ADDF019C6B23046711C64
:10053000CEB214F800A0A05D4AEA002AE81CC3B2BB
:10054000BA1C2146019800F057F8019001988245A5
:1005500005D1109902980870069880F80090B3466B
:1005600004E04FF0FF3B01E06FF0010B584607B08D
:10057000BDE8F08F2DE9F04F81468A4616461C46AD
:10058000DDF824B0002528466D1C04F800904AEAE6
:100590008610C2B228466D1C2254C6F38502284636
:1005A0006D1C2254002303222146184600F024F833
:1005B000074628466D1C27543A1228466D1C2254C3
:1005C0004FF0000806E01BF8082028466D1C225456
:1005D00008F10108B045F6DB0323B21C214638467A
:1005E00000F00AF8074628466D1C27543A122846A0
:1005F0006D1C2254BDE8F08F30B50BE01C465D1C2D
:10060000EBB20C5D84EA2024054D35F8144084EAF1
:100610000024A0B2141EA2F10102EFD130BD0000EF
:100620000000002070B504460025A14203DDA0189B
:10063000884200DC0125A14204DAC818A618B0429D
:1006400000DB0125E8B270BD0848006800F4805066
:1006500058B10020064908604FF4805003490860F3
:10066000002004490860044908607047143C0140B8
:1006700034020020180200200C3800401949086894
:1006800000F0010131B11849184A1268895C154A15
:10069000121F116000F0020111B11249091D096811
:1006A00000F08401842911D10E491439096801F43C
:1006B000007159B90B491439096841F40071094AAC
:1006C000143A116001210A4A11600AE000F0800129
:1006D00039B108490968054A1268895C014A121F44
:1006E00011607047145800400C02002014020020D2
:1006F000100200200802002000F01F02012191409A
:100700004209920002F1E022C2F800117047000095
:100710000C48006800F0010098B10B4800680528FB
:1007200003DA00200749091D08600649091D096808
:100730000AB205490868411C034B1960034921F8B6
:10074000102070470838004018020020A204002042
:100750001448006840F470001249086012480068AC
:1007600040F001001049086000200F49083108607E
:100770000D4800680D4908400B4908600C48091DE8
:100780000860081F006820F48020091F086000200E
:1007900005490C3108604FF000600249803908605B
:1007A0007047000088ED00E000380240FFFFF6FED1
:1007B0001030002400201E4908601E480068A0B9BF
:1007C0001D48006820F040001B4908601B48006875
:1007D000401C1A4908601848006840F0400016495B
:1007E000086001201349086021E0124800680128D0
:1007F00002D002281AD109E01148006840F40060D4
:100800000F49086002200B4908600FE000200949E9
:1008100008600B48006820F4006009490860094836
:10082000008820F004000749088000BF00BF70471F
:100830001008004034020020141802401C0200205E
:10084000140C0240300200200A48006800F020002A
:1008500060B10848001D00680749084A128888549A
:1008600006480078401CC0B20449088000200149B5
:1008700008607047004400403C0200200002002055
:10088000F8B506460C460027012E02D0032E36D1BD
:100890000FE006203549087010204870032088704A
:1008A0001620C870032008711620487106250127FC
:1008B00025E02046611CCCB22D49085CC0432D497F
:1008C000096808702046611CCCB22949085CC04305
:1008D0002849096848702046611CCCB22449085C4C
:1008E000C043244909688870032023490860012017
:1008F0002249086000F050F81825012700BF00BF0A
:100900009FB31F48006840B100201D4908601D4882
:10091000406940F001001B4948611448AAB21A4BD3
:10092000314600900120FFF725FE1848006817495E
:100930000A68402191430840144908601448C0687F
:1009400040F440101249C860E81D1149A431086004
:100950000F48D0F8A00040F001000D49C1F8A000F8
:100960000C480068401C0B490860F8BD3D0400209D
:100970003C02002008020020140200201002002087
:100980002C020020000002403C03002000440040F4
:1009900000600240200200207A497B4A12680A6007
:1009A0007A494FF0C04213680B6053684B6012895C
:1009B0000A8174490978C1F302114901714A127818
:1009C000C2F3C01241EA02116E4A127802F00F021D
:1009D00011436F4A11706D494988090AC9016B4A70
:1009E0009278C2F3811241EA4211684A1278C2F346
:1009F000810241EAC201654A127902F0010241EA2C
:100A00008201624A5288C2F3803241EA42015F4A5F
:100A10005288C2F3003211435D4A51705949098826
:100A2000C1F34021C901594A5288C2F3812241EAE7
:100A30004201564A5288C2F3012241EA6201544AF5
:100A4000917052490988C1F3812189014F4A128866
:100A5000920B41EA02114D4A1288C2F3013241EA77
:100A60008201484A1288C2F3002241EA4201454A03
:100A70001288C2F380221143454AD1704349097854
:100A8000C1F301118901414A927902F0030241EA5E
:100A900002113E4A9288920B41EA82013B4A128837
:100AA000C2F3012211433A4A11713849C988C1F38E
:100AB00001318901354AD288C2F3012241EA02118B
:100AC000324AD288C2F3812241EA82012F4A9288B7
:100AD000C2F3013211432E4A51712C498978C1F376
:100AE00081018901294A1278C2F3811241EA021177
:100AF000264A1279C2F3011241EA8201234A9288FE
:100B0000C2F301221143224A917120490989C1F39C
:100B1000812189011D4A1289C2F3012241EA021191
:100B20001A4A127AC2F3811241EA8201174A927874
:100B3000C2F301121143164AD1711649098888B2CD
:100B40000112517290721349498888B20112D17210
:100B500010731049898888B20112517390730D493E
:100B6000C98888B20112D17310740A49098988B200
:100B70000112517490740749498988B20112D174E5
:100B8000107570473802002010000060AE0400208D
:100B90003D040020A20400203EB526E001A80090FC
:100BA000184802781848017802AB1848FFF774FC1F
:100BB0000446002C0EDB9DF80400042807D11248DF
:100BC0000078401DC1B29DF80800FFF759FE0E499C
:100BD0000C8015E0601C00B912E0A01C28B90A487E
:100BE0000078401CC0B2084908804FF48073052289
:100BF0000448018804480088FFF714FD0028CDD17F
:100C000000BF3EBD00020020060200203C02002082
:100C10000948006840F4001007490860074808497F
:100C2000086008480649A039C1F8A80006480449E8
:100C30000C31086070470000303802404004000862
:100C4000A0600240044400403C03002026480068A5
:100C500040F0780024490860244825490860254868
:100C6000234908310860244821492031086023497C
:100C70001F4841622248234908602348886023486E
:100C800008624FF0CC311F48416221482149086079
:100C9000214820490831086020481E492031086059
:100CA00001041C48416240F2AA201D49086040F23C
:100CB000FF301B49083108601A4819492031086083
:100CC00009480830006840F0010007490831086011
:100CD00043F211004FF02041086013484860134868
:100CE0001349086070470000303802408A8A2AA001
:100CF000000C0240CFCF3FF0CCC0CCC0CC0C00CC1D
:100D00000A80AAAA001002400FC0FFFFCC0000C05A
:100D1000AA0A00AA00140240FF0F00FFCCCCCC00AE
:100D200000180240CCCC0C00F2081402F2081F029A
:100D3000040100A010B52248006840F002002049DC
:100D400008602048006840F420001E490860081D23
:100D5000006840F44060091D0860081D006840F408
:100D60002000091D08601748406A40F48841154872
:100D700041622120FFF7C0FC11481030006840F4A8
:100D800080000F49103108604FF400400E490860A0
:100D900000200860CF200C491C31086048150A4922
:100DA000091D0860081F006840F00100091F086065
:100DB000002006490860401E0549086010BD00007B
:100DC0003038024000040240005800401002002069
:100DD0001402002000202949096841F48031274A83
:100DE000116000BF2549096801F400310029F9D0DC
:100DF000411C0846B1F57A7FF4DB2049403109688F
:100E000041F080511D4A403211601D49096841F48A
:100E100080411B4A116019490831096841F41441A5
:100E2000164A083211601749121F1160111F096814
:100E300041F08071121F116000BF1049096801F074
:100E400000710029F9D040F205710F4A11600B4979
:100E50000831096821F00301084A0832116011467F
:100E6000096841F00201116000BF044908310968B6
:100E700001F008010029F8D0704700000038024056
:100E80000070004018544004003C024010B51E2081
:100E9000FFF732FC0E48006840F004000C4908607F
:100EA00000200C4908605320091D086040F2E7301B
:100EB000091D086001200749183908608420054988
:100EC000243908600846006840F00100086010BD41
:100ED000403802402408004010B51748006840F030
:100EE0000100154908601548006840F0A100134949
:100EF00008600846806840F0F30088600846006A91
:100F000040F4EE4008622620FFF7F6FB0A48103056
:100F1000006840F40030084910310860B3200849E7
:100F20000860802006490C3108604AF22C00044910
:100F3000091D086010BD000030380240000002406A
:100F400008440040FFF746FFFFF780FEFFF7C4FFAD
:100F5000FFF79CFFFFF7EEFEFFF7D4F9FFF758FE0F
:100F60000420344908800020334908604FF6FF70A0
:100F7000324908805DE0FFF70FFE31480068A0B1FC
:100F80003048006800F4007078B900202C490860EF
:100F90002D480068401E2C490860002805DB2948C0
:100FA000006840F480702749086028480068B0F560
:100FB000FA7F1ADB0020254908602548006830B117
:100FC0001C48008840F001001A49088005E01948D3
:100FD000008820F00100174908801D48006808B902
:100FE000012000E000201A4908601A480068B0F5A6
:100FF000FA7F1ADB0020174908601748006830B1F3
:101000000C48008840F002000A49088005E00948C1
:10101000008820F00200074908800F48006808B9DE
:10102000012000E000200C490860024800880B49BC
:101030000860A0E7300200203402002002020020F5
:10104000100200200058004014020020200200205E
:10105000280200201C020020240200201E00006044
:101060004FF04070E1EE100A704700008C1000084D
:10107000000000203C020000C40100089C1200088F
:101080003C020020DC080000000200083110FF21B3
:1010900010422063308440A550C660E77008812963
:1010A000914AA16BB18CC1ADD1CEE1EFF1311210FB
:1010B0000273325222B5529442F772D662399318B3
:1010C000837BB35AA3BDD39CC3FFF3DEE362244307
:1010D0003420040114E664C774A44485546AA54B03
:1010E000B528850995EEE5CFF5ACC58DD55336729B
:1010F0002611163006D776F6669556B4465BB77A53
:10110000A719973887DFF7FEE79DD7BCC7C448E526
:10111000588668A7784008611802282338CCC9EDA2
:10112000D98EE9AFF9488969990AA92BB9F55AD43A
:101130004AB77A966A711A500A333A122AFDDBDCF2
:10114000CBBFFB9EEB799B588B3BBB1AABA66C8746
:101150007CE44CC55C222C033C600C411CAEED8F42
:10116000FDECCDCDDD2AAD0BBD688D499D977EB6DA
:101170006ED55EF44E133E322E511E700E9FFFBE92
:10118000EFDDDFFCCF1BBF3AAF599F788F2014886B
:1011900091A981CAB1EBA10CD12DC14EF16FE180B3
:1011A00010A190EDC230E3200450254046706760E6
:1011B000B9839893FBA3DAB33DC31CD37FE35EF3FB
:1011C000B1029012F322D232354214527762567233
:1011D000EAB5CBA5A89589856EF54FE52CD50DC54B
:1011E000E234C324A0148104667447642454054483
:1011F000DBA7FAB79987B8975FE77EF71DC73CD79B
:10120000D326F2369106B0165766767615463456D2
:101210004CD96DC90EF92FE9C899E9898AB9ABA9EA
:101220004458654806782768C018E1088238A32822
:101230007DCB5CDB3FEB1EFBF98BD89BBBAB9ABB3A
:10124000754A545A376A167AF10AD01AB32A923A72
:101250002EFD0FED6CDD4DCDAABD8BADE89DC98D8A
:10126000267C076C645C454CA23C832CE01CC10CC2
:101270001FEF3EFF5DCF7CDF9BAFBABFD98FF89FDA
:10128000176E367E554E745E932EB23ED10EF01E12
:0C129000081E52040020404244021001DD
:0400000508000249A4
:00000001FF
